:06040000012A88010D2F06
:100E1A0020008C2F00000130F0020030F13B7108F5
:100E2A00700403190800102FF501F31F232FF2098C
:100E3A00F309F20A0319F30AF501F50AF11F2A2F39
:100E4A00F009F109F00A0319F10A7108700403198B
:100E5A00452FF401F40AF11B352FF035F10D2F2F30
:100E6A0071087302031D3B2F70087202031C412F85
:100E7A007008F2027108F33BF136F00CF40B352FCF
:100E8A00750803194D2FF209F309F20A0319F30A37
:100E9A007308F1007208F0000800F3000130F10055
:100EAA007308F200F236F2367208890A5D2FF135BC
:100EBA00890B5C2F7108F4000130F10073080339C3
:100ECA00033C890A692FF135890B682F7108F500EF
:100EDA00F0308C058D057509F10021000C08F039F8
:100EEA0071048C007409F1000D08F03971048D0049
:100EFA0070080319862F750820008C0474098D0563
:100F0A000800750920008C0574088D040800FF305C
:100F1A0021008C008D008D3020009800F801F90125
:100F2A0017087606031DA32F1330F6070C30F000BE
:100F3A00F1017808F92719277008F800F0017808F4
:100F4A00522717087706031DB42F0730F7070C300E
:100F5A00F000F1017908F92719277008F900F00162
:100F6A00F00A79080B3C5227952FFE3021008C009D
:100F7A00EF270F270130DD270F27FE3021008C00D5
:100F8A00FD30E5270F270130DD270F27FD3021002F
:100F9A008C00FE30EF270F270230DD270F27FD30A8
:100FAA0021008C00E5270F270230DD270F27BA2FF3
:100FBA0020008C008D01DC30F000FF30F1000800C9
:100FCA008D0020008C0102308D00DC30F000FF30F3
:100FDA00F10008008D0020008C0101308D00DC300A
:100FEA00F000FF30F1000800013EF2000030031863
:060FFA000130F3000800C5
:00000001FF
