:04000000803107281C
:100008008231042A0900880180310A2820000C283E
:10001800E02180312000A030EE01EA008630EB00BC
:100028000130EC002000E901E90A20006C086B04AB
:100038006A0403192F280130E200E301E401EA020F
:100048006308EB3B6408EC3B6C086B046A04031D13
:100058002F28D22180312000690803193B28A620C7
:100068008031003A031919282000E9011928A6202F
:1000780080310038031D19283430F000F101C821FF
:10008800803108302000E7002000E7036708FF3AC6
:1000980003196328A62080310038031D5628200044
:1000A800E501592880302000E500E6016D36650439
:1000B800ED001C30F000F101C82180314828A6204D
:1000C8008031003A0319162820006E0803197C288D
:1000D8006808203E860087016D088100E80AEE0B5B
:1000E8001928B02080312000EA01EB01EC01192821
:1000F8006D08A000E801E80A8B28433089280230FF
:100108008928EE01EE0A9C280330EE009C286D0831
:10011800423A03198528103A03198328013A03192A
:100128008828043A031981280F3A031985289C283E
:100138006E08A521803120006E0803191928EE0BDE
:100148003A28752821009D149D18A8282B301C02D8
:1001580000300318013008002008573A031D1329FE
:10016800F801FB01FB0A7B08203E86008701010895
:10017800F8074230FB0A7B027B08031CB828203EA4
:100188008600010878060319CE281530A52180318C
:100198007808A5292108F9000530FA01F935FA0D82
:1001A800890BD22823001515790891007A08920046
:1001B80055301513951715169600AA309600951404
:1001C800000000002300151AE6280230FB007B0817
:1001D800203E8600870101089400FB0A7B08203E28
:1001E8008600010893000730FB0A7B05F400023AF9
:1001F8000319012923009516032923009512553068
:100208009600AA3096009514000000002300910A79
:1002180042307B02031CEB2806301511A529200863
:10022800523A031D45290630A521803120002108B6
:10023800F9000530FA01F935FA0D890B1F29210853
:10024800F8007908230091007A0892001513951791
:10025800FB0115140000000023001408A5218031BB
:1002680023001408F8071308A52180312300130878
:10027800F807910A2030FB0A7B02031C2D29780815
:10028800A5292008423A031D69290630A521803195
:100298008130220097007D3021009D002200171F29
:1002A8005229E830F0000330F100C82180312100E4
:1002B8009D149D185D291C08A521803121001B086B
:1002C800A521803122009701E5292008583A031D0D
:1002D80071290630A5218031D2292008533A031DFF
:1002E800A3290630A52180312E3021008C00F6018B
:1002F800F70120002208F400F501F500F401770267
:10030800031D88297408760203189E292108F00025
:10031800F101C8218031913020008C002108F000C3
:10032800F101C8218031513020008C00F60A0319F0
:10033800F70A7D29EE3021008C000630A5291530FA
:10034800A529F2000830F30020000C10F30373080D
:10035800FF3A0319BD292730F000F101C821803187
:10036800721CB92920000C14BB2920000C10F2368D
:10037800AA292830F000F101C821803120000C148E
:100388002830F000F101C82900000130F0020030E7
:10039800F13B7108700403190800C92921009D0167
:1003A800FF308C008D0020008C018D0123008C0013
:1003B8008D008231002A0800EF218031EB21803145
:1003C800E529203021009E0021309D0008007A3068
:1003D80021009900080023008C0110308D00EE30B8
:1003E80021008C00FE308D00013020008C008D0132
:0203F8000800FB
:020000040001F9
:04000E00A40FFE3EFF
:00000001FF
